:2000000000FFFF000000000846FC270041F900C0000443FA002C7007309951C8FFFC20BCDA
:20002000C01E0000317C0EEEFFFC43FA03B42A3C460E0003613641FA00687220611260FEF0
:20004000801681748230840787008C818F02900143F900C00000237C4020000000047607A6
:20006000229851CBFFFC51C9FFF64E7541F900C00000214500047200121914010C02000DAC
:20008000670000160C02007D660000044E75120204410040308160DE06850080000060CC6C
:2000A0000FFFFFE0FFEEEFFEFFE00FFEFFFFFFFEFFEEEFFEFFE00FFEFFE00FFEEEE00EEE16
:2000C000FFFFFFE0FFEEEFFEFFE00FFEFFFFFFEEFFEEEFFEFFE00FFEFFFFFFEEEEEEEEE037
:2000E0000FFFFFFEFFEEEEEEFFE00000FFE00000FFE00000FFE00000EFFFFFFE0EEEEEEEED
:20010000FFFFFFE0FFEEEFFEFFE00FFEFFE00FFEFFE00FFEFFE00FFEFFFFFFEEEEEEEEE0E3
:20012000FFFFFFFEFFEEEEEEFFE00000FFFFFFE0FFEEEEE0FFE00000FFFFFFFEEEEEEEEEF2
:20014000FFFFFFFEFFEEEEEEFFE00000FFFFFFE0FFEEEEE0FFE00000FFE00000EEE00000D8
:200160000FFFFFFEFFEEEEEEFFE00000FFE0FFFEFFE0EFFEFFE00FFEEFFFFFEE0EEEEEE093
:20018000FFE00FFEFFE00FFEFFE00FFEFFFFFFFEFFEEEFFEFFE00FFEFFE00FFEEEE00EEE24
:2001A00000FFE00000FFE00000FFE00000FFE00000FFE00000FFE00000FFE00000EEE00058
:2001C00000000FFE00000FFE00000FFE00000FFEFFE00FFEFFE00FFEEFFFFFEE0EEEEEE06E
:2001E000FFE00FFEFFE0FFEEFFEFFEE0FFFFEE00FFEFFE00FFEEFFE0FFE0EFFEEEE00EEE41
:20020000FFE00000FFE00000FFE00000FFE00000FFE00000FFE00000FFFFFFFEEEEEEEEEF1
:20022000FFE00FFEFFFEFFFEFFFFFFFEFFEFEFFEFFEEEFFEFFE00FFEFFE00FFEEEE00EEE86
:20024000FFE00FFEFFFE0FFEFFFFEFFEFFEFFFFEFFEEFFFEFFE0EFFEFFE00FFEEEE00EEE66
:200260000FFFFFE0FFEEEFFEFFE00FFEFFE00FFEFFE00FFEFFE00FFEEFFFFFEE0EEEEEE062
:20028000FFFFFFE0FFEEEFFEFFE00FFEFFFFFFEEFFEEEEE0FFE00000FFE00000EEE0000089
:2002A0000FFFFFE0FFEEEFFEFFE00FFEFFE00FFEFFEFEFFEFFEEFFEEEFFFFEFE0EEEEEEE28
:2002C000FFFFFFE0FFEEEFFEFFE00FFEFFFFFFEEFFEEEFFEFFE00FFEFFE00FFEEEE00EEE14
:2002E0000FFFFFFEFFEEEEEEFFE00000EFFFFFE00EEEEFFE00000FFEFFFFFFEEEEEEEEE0F3
:20030000FFFFFFE0EEFFEEE000FFE00000FFE00000FFE00000FFE00000FFE00000EEE0001C
:20032000FFE00FFEFFE00FFEFFE00FFEFFE00FFEFFE00FFEFFE00FFEEFFFFFEE0EEEEEE090
:20034000FFE00FFEFFE00FFEFFE00FFEEFFEFFEE0FFEFFE00EFFFEE000EFEE00000EE0005D
:20036000FFE00FFEFFE00FFEFFEFEFFEFFEFEFFEFFEFEFFEFFFFFFFEEFFEFFEE0EEEEEE075
:20038000FFE00FFEFFE00FFEEFFEFFEE0EFFFEE00FFEFFE0FFEEEFFEFFE00FFEEEE00EEE44
:2003A000FFE0FFE0FFE0FFE0FFE0FFE0EFFFFEE00EFFEE0000FFE00000FFE00000EEE000B0
:2003C000FFFFFFE0EEEEFFE0000FFEE000FFEE000FFEE000FFEE0000FFFFFFE0EEEEEEE04A
:1B03E00048454C4C4F20574F524C442054484953204953204120544553547D94
:00000001FF
